{
  "_format": "hh-sol-artifact-1",
  "contractName": "DeployableNFT",
  "sourceName": "contracts/DeployableNFT.sol",
  "abi": [
    {
      "inputs": [
        {
          "internalType": "string",
          "name": "name_",
          "type": "string"
        },
        {
          "internalType": "string",
          "name": "symbol_",
          "type": "string"
        },
        {
          "internalType": "uint256",
          "name": "maxSupply_",
          "type": "uint256"
        },
        {
          "internalType": "uint256",
          "name": "mintPrice_",
          "type": "uint256"
        },
        {
          "internalType": "string",
          "name": "baseURI_",
          "type": "string"
        }
      ],
      "stateMutability": "nonpayable",
      "type": "constructor"
    },
    {
      "inputs": [
        {
          "internalType": "address",
          "name": "sender",
          "type": "address"
        },
        {
          "internalType": "uint256",
          "name": "tokenId",
          "type": "uint256"
        },
        {
          "internalType": "address",
          "name": "owner",
          "type": "address"
        }
      ],
      "name": "ERC721IncorrectOwner",
      "type": "error"
    },
    {
      "inputs": [
        {
          "internalType": "address",
          "name": "operator",
          "type": "address"
        },
        {
          "internalType": "uint256",
          "name": "tokenId",
          "type": "uint256"
        }
      ],
      "name": "ERC721InsufficientApproval",
      "type": "error"
    },
    {
      "inputs": [
        {
          "internalType": "address",
          "name": "approver",
          "type": "address"
        }
      ],
      "name": "ERC721InvalidApprover",
      "type": "error"
    },
    {
      "inputs": [
        {
          "internalType": "address",
          "name": "operator",
          "type": "address"
        }
      ],
      "name": "ERC721InvalidOperator",
      "type": "error"
    },
    {
      "inputs": [
        {
          "internalType": "address",
          "name": "owner",
          "type": "address"
        }
      ],
      "name": "ERC721InvalidOwner",
      "type": "error"
    },
    {
      "inputs": [
        {
          "internalType": "address",
          "name": "receiver",
          "type": "address"
        }
      ],
      "name": "ERC721InvalidReceiver",
      "type": "error"
    },
    {
      "inputs": [
        {
          "internalType": "address",
          "name": "sender",
          "type": "address"
        }
      ],
      "name": "ERC721InvalidSender",
      "type": "error"
    },
    {
      "inputs": [
        {
          "internalType": "uint256",
          "name": "tokenId",
          "type": "uint256"
        }
      ],
      "name": "ERC721NonexistentToken",
      "type": "error"
    },
    {
      "inputs": [
        {
          "internalType": "address",
          "name": "owner",
          "type": "address"
        }
      ],
      "name": "OwnableInvalidOwner",
      "type": "error"
    },
    {
      "inputs": [
        {
          "internalType": "address",
          "name": "account",
          "type": "address"
        }
      ],
      "name": "OwnableUnauthorizedAccount",
      "type": "error"
    },
    {
      "anonymous": false,
      "inputs": [
        {
          "indexed": true,
          "internalType": "address",
          "name": "owner",
          "type": "address"
        },
        {
          "indexed": true,
          "internalType": "address",
          "name": "approved",
          "type": "address"
        },
        {
          "indexed": true,
          "internalType": "uint256",
          "name": "tokenId",
          "type": "uint256"
        }
      ],
      "name": "Approval",
      "type": "event"
    },
    {
      "anonymous": false,
      "inputs": [
        {
          "indexed": true,
          "internalType": "address",
          "name": "owner",
          "type": "address"
        },
        {
          "indexed": true,
          "internalType": "address",
          "name": "operator",
          "type": "address"
        },
        {
          "indexed": false,
          "internalType": "bool",
          "name": "approved",
          "type": "bool"
        }
      ],
      "name": "ApprovalForAll",
      "type": "event"
    },
    {
      "anonymous": false,
      "inputs": [
        {
          "indexed": false,
          "internalType": "uint256",
          "name": "_fromTokenId",
          "type": "uint256"
        },
        {
          "indexed": false,
          "internalType": "uint256",
          "name": "_toTokenId",
          "type": "uint256"
        }
      ],
      "name": "BatchMetadataUpdate",
      "type": "event"
    },
    {
      "anonymous": false,
      "inputs": [
        {
          "indexed": false,
          "internalType": "uint256",
          "name": "_tokenId",
          "type": "uint256"
        }
      ],
      "name": "MetadataUpdate",
      "type": "event"
    },
    {
      "anonymous": false,
      "inputs": [
        {
          "indexed": true,
          "internalType": "address",
          "name": "previousOwner",
          "type": "address"
        },
        {
          "indexed": true,
          "internalType": "address",
          "name": "newOwner",
          "type": "address"
        }
      ],
      "name": "OwnershipTransferred",
      "type": "event"
    },
    {
      "anonymous": false,
      "inputs": [
        {
          "indexed": true,
          "internalType": "address",
          "name": "from",
          "type": "address"
        },
        {
          "indexed": true,
          "internalType": "address",
          "name": "to",
          "type": "address"
        },
        {
          "indexed": true,
          "internalType": "uint256",
          "name": "tokenId",
          "type": "uint256"
        }
      ],
      "name": "Transfer",
      "type": "event"
    },
    {
      "inputs": [
        {
          "internalType": "address",
          "name": "to",
          "type": "address"
        },
        {
          "internalType": "uint256",
          "name": "tokenId",
          "type": "uint256"
        }
      ],
      "name": "approve",
      "outputs": [],
      "stateMutability": "nonpayable",
      "type": "function"
    },
    {
      "inputs": [
        {
          "internalType": "address",
          "name": "owner",
          "type": "address"
        }
      ],
      "name": "balanceOf",
      "outputs": [
        {
          "internalType": "uint256",
          "name": "",
          "type": "uint256"
        }
      ],
      "stateMutability": "view",
      "type": "function"
    },
    {
      "inputs": [
        {
          "internalType": "uint256",
          "name": "tokenId",
          "type": "uint256"
        }
      ],
      "name": "getApproved",
      "outputs": [
        {
          "internalType": "address",
          "name": "",
          "type": "address"
        }
      ],
      "stateMutability": "view",
      "type": "function"
    },
    {
      "inputs": [
        {
          "internalType": "address",
          "name": "owner",
          "type": "address"
        },
        {
          "internalType": "address",
          "name": "operator",
          "type": "address"
        }
      ],
      "name": "isApprovedForAll",
      "outputs": [
        {
          "internalType": "bool",
          "name": "",
          "type": "bool"
        }
      ],
      "stateMutability": "view",
      "type": "function"
    },
    {
      "inputs": [],
      "name": "maxSupply",
      "outputs": [
        {
          "internalType": "uint256",
          "name": "",
          "type": "uint256"
        }
      ],
      "stateMutability": "view",
      "type": "function"
    },
    {
      "inputs": [
        {
          "internalType": "address",
          "name": "to",
          "type": "address"
        }
      ],
      "name": "mint",
      "outputs": [],
      "stateMutability": "payable",
      "type": "function"
    },
    {
      "inputs": [],
      "name": "mintPrice",
      "outputs": [
        {
          "internalType": "uint256",
          "name": "",
          "type": "uint256"
        }
      ],
      "stateMutability": "view",
      "type": "function"
    },
    {
      "inputs": [],
      "name": "name",
      "outputs": [
        {
          "internalType": "string",
          "name": "",
          "type": "string"
        }
      ],
      "stateMutability": "view",
      "type": "function"
    },
    {
      "inputs": [],
      "name": "owner",
      "outputs": [
        {
          "internalType": "address",
          "name": "",
          "type": "address"
        }
      ],
      "stateMutability": "view",
      "type": "function"
    },
    {
      "inputs": [
        {
          "internalType": "address",
          "name": "to",
          "type": "address"
        }
      ],
      "name": "ownerMint",
      "outputs": [],
      "stateMutability": "nonpayable",
      "type": "function"
    },
    {
      "inputs": [
        {
          "internalType": "uint256",
          "name": "tokenId",
          "type": "uint256"
        }
      ],
      "name": "ownerOf",
      "outputs": [
        {
          "internalType": "address",
          "name": "",
          "type": "address"
        }
      ],
      "stateMutability": "view",
      "type": "function"
    },
    {
      "inputs": [],
      "name": "renounceOwnership",
      "outputs": [],
      "stateMutability": "nonpayable",
      "type": "function"
    },
    {
      "inputs": [
        {
          "internalType": "address",
          "name": "from",
          "type": "address"
        },
        {
          "internalType": "address",
          "name": "to",
          "type": "address"
        },
        {
          "internalType": "uint256",
          "name": "tokenId",
          "type": "uint256"
        }
      ],
      "name": "safeTransferFrom",
      "outputs": [],
      "stateMutability": "nonpayable",
      "type": "function"
    },
    {
      "inputs": [
        {
          "internalType": "address",
          "name": "from",
          "type": "address"
        },
        {
          "internalType": "address",
          "name": "to",
          "type": "address"
        },
        {
          "internalType": "uint256",
          "name": "tokenId",
          "type": "uint256"
        },
        {
          "internalType": "bytes",
          "name": "data",
          "type": "bytes"
        }
      ],
      "name": "safeTransferFrom",
      "outputs": [],
      "stateMutability": "nonpayable",
      "type": "function"
    },
    {
      "inputs": [
        {
          "internalType": "address",
          "name": "operator",
          "type": "address"
        },
        {
          "internalType": "bool",
          "name": "approved",
          "type": "bool"
        }
      ],
      "name": "setApprovalForAll",
      "outputs": [],
      "stateMutability": "nonpayable",
      "type": "function"
    },
    {
      "inputs": [
        {
          "internalType": "string",
          "name": "baseURI_",
          "type": "string"
        }
      ],
      "name": "setBaseURI",
      "outputs": [],
      "stateMutability": "nonpayable",
      "type": "function"
    },
    {
      "inputs": [
        {
          "internalType": "bytes4",
          "name": "interfaceId",
          "type": "bytes4"
        }
      ],
      "name": "supportsInterface",
      "outputs": [
        {
          "internalType": "bool",
          "name": "",
          "type": "bool"
        }
      ],
      "stateMutability": "view",
      "type": "function"
    },
    {
      "inputs": [],
      "name": "symbol",
      "outputs": [
        {
          "internalType": "string",
          "name": "",
          "type": "string"
        }
      ],
      "stateMutability": "view",
      "type": "function"
    },
    {
      "inputs": [
        {
          "internalType": "uint256",
          "name": "tokenId",
          "type": "uint256"
        }
      ],
      "name": "tokenURI",
      "outputs": [
        {
          "internalType": "string",
          "name": "",
          "type": "string"
        }
      ],
      "stateMutability": "view",
      "type": "function"
    },
    {
      "inputs": [],
      "name": "totalMinted",
      "outputs": [
        {
          "internalType": "uint256",
          "name": "",
          "type": "uint256"
        }
      ],
      "stateMutability": "view",
      "type": "function"
    },
    {
      "inputs": [
        {
          "internalType": "address",
          "name": "from",
          "type": "address"
        },
        {
          "internalType": "address",
          "name": "to",
          "type": "address"
        },
        {
          "internalType": "uint256",
          "name": "tokenId",
          "type": "uint256"
        }
      ],
      "name": "transferFrom",
      "outputs": [],
      "stateMutability": "nonpayable",
      "type": "function"
    },
    {
      "inputs": [
        {
          "internalType": "address",
          "name": "newOwner",
          "type": "address"
        }
      ],
      "name": "transferOwnership",
      "outputs": [],
      "stateMutability": "nonpayable",
      "type": "function"
    },
    {
      "inputs": [],
      "name": "withdraw",
      "outputs": [],
      "stateMutability": "nonpayable",
      "type": "function"
    }
  ],
  "bytecode": "0x608060405234620004f85762001c03803803806200001d81620004fd565b92833981019060a081830312620004f85780516001600160401b039190828111620004f857836200005091830162000523565b9060209384820151848111620004f857816200006e91840162000523565b6040830151926060810151926080820151878111620004f85762000093920162000523565b91845193868511620004e2576000928354956001978888811c98168015620004d7575b8b891014620003db5781908b601f998a811162000481575b50508b908983116001146200041a5787926200040e575b5050600019600383901b1c191690881b1784555b805190888211620003fa5787548881811c91168015620003ef575b8b821014620003db5790818884931162000388575b508a908883116001146200032357869262000317575b5050600019600383901b1c191690871b1786555b3315620002fe5760078054336001600160a01b0319821681179092556001600160a01b03167f8be0079c531659141344cd1fd0a4f28419497f9722a3daafe3b4186f6b6457e08580a3600955600a558151948511620002ea57600b548481811c91168015620002df575b87821014620002cb5783811162000282575b5085928511600114620002195793945084929190836200020d575b50501b916000199060031b1c191617600b555b60405161166d9081620005968239f35b015192503880620001ea565b600b815285812093958591601f198316915b888383106200026757505050106200024d575b505050811b01600b55620001fd565b015160001960f88460031b161c191690553880806200023e565b8587015188559096019594850194879350908101906200022b565b600b82528682208480880160051c820192898910620002c1575b0160051c019085905b828110620002b5575050620001cf565b838155018590620002a5565b925081926200029c565b634e487b7160e01b82526022600452602482fd5b90607f1690620001bd565b634e487b7160e01b81526041600452602490fd5b604051631e4fbdf760e01b815260048101849052602490fd5b0151905038806200013f565b8987528b87208a94509190601f198416888e5b82821062000370575050841162000356575b505050811b01865562000153565b015160001960f88460031b161c1916905538808062000348565b8385015186558d979095019493840193018e62000336565b9091508886528a86208880850160051c8201928d8610620003d1575b918b91869594930160051c01915b828110620003c257505062000129565b8881558594508b9101620003b2565b92508192620003a4565b634e487b7160e01b86526022600452602486fd5b90607f169062000114565b634e487b7160e01b85526041600452602485fd5b015190503880620000e5565b8780528c88208b94509190601f198416898f5b8282106200046757505084116200044d575b505050811b018455620000f9565b015160001960f88460031b161c191690553880806200043f565b8484015186558e979095019493840193908101906200042d565b90919250878052898289209181860160051c8301938610620004cd575b918c91869594930160051c01915b828110620004be57508d9150620000ce565b8981558594508c9101620004ac565b925081926200049e565b97607f1697620000b6565b634e487b7160e01b600052604160045260246000fd5b600080fd5b6040519190601f01601f191682016001600160401b03811183821017620004e257604052565b919080601f84011215620004f85782516001600160401b038111620004e25760209062000559601f8201601f19168301620004fd565b92818452828287010111620004f85760005b8181106200058157508260009394955001015290565b85810183015184820184015282016200056b56fe6080604081815260048036101561001557600080fd5b600092833560e01c90816301ffc9a714610a4c5750806306fdde03146109a4578063081812fc14610969578063095ea7b31461088d5780631e3bcc8e1461085757806323b872dd1461083f5780633ccfd60b146107cb57806342842e0e1461079c57806355f804b31461061f5780636352211e146105ee5780636817c76c146105cf5780636a6278421461054f57806370a08231146104fa578063715018a61461049d5780638da5cb5b1461047457806395d89b4114610391578063a22cb465146102f0578063a2309ff8146102d1578063b88d4fde1461025e578063c87b56dd14610223578063d5abeb0114610204578063e985e9c5146101b25763f2fde38b1461012057600080fd5b346101ae5760203660031901126101ae57610139610b1a565b90610142610c27565b6001600160a01b03918216928315610198575050600754826bffffffffffffffffffffffff60a01b821617600755167f8be0079c531659141344cd1fd0a4f28419497f9722a3daafe3b4186f6b6457e08380a380f35b51631e4fbdf760e01b8152908101849052602490fd5b8280fd5b50503461020057806003193601126102005760ff816020936101d2610b1a565b6101da610b35565b6001600160a01b0391821683526005875283832091168252855220549151911615158152f35b5080fd5b5050346102005781600319360112610200576020906009549051908152f35b50913461025b57602036600319011261025b57506102446102579235611261565b9051918291602083526020830190610af5565b0390f35b80fd5b83823461020057608036600319011261020057610279610b1a565b610281610b35565b6044359060643567ffffffffffffffff81116102cd57366023820112156102cd576102ca948160246102b893369301359101610bf0565b926102c4838383610c8d565b33610e97565b80f35b8580fd5b5050346102005781600319360112610200576020906008549051908152f35b5090346101ae57806003193601126101ae5761030a610b1a565b906024359182151580930361038d576001600160a01b03169283156103785750338452600560205280842083855260205280842060ff1981541660ff8416179055519081527f17307eab39ab6107e8899845ad3d59bd9653f200f220920489ca2b5937696c3160203392a380f35b836024925191630b61174360e31b8352820152fd5b8480fd5b5050346102005781600319360112610200578051908260018054916103b583610c53565b8086529282811690811561044c57506001146103f0575b5050506103de82610257940383610bb2565b51918291602083526020830190610af5565b94508085527fb10e2d527612073b26eecdfd717e6a320cf44b4afac2b0732d9fcbe2b7fa0cf65b828610610434575050506103de82602061025795820101946103cc565b80546020878701810191909152909501948101610417565b6102579750869350602092506103de94915060ff191682840152151560051b820101946103cc565b50503461020057816003193601126102005760075490516001600160a01b039091168152602090f35b833461025b578060031936011261025b576104b6610c27565b600780546001600160a01b0319811690915581906001600160a01b03167f8be0079c531659141344cd1fd0a4f28419497f9722a3daafe3b4186f6b6457e08280a380f35b50913461025b57602036600319011261025b576001600160a01b0361051d610b1a565b1692831561053a5750806020938392526003845220549051908152f35b91516322718ad960e21b815291820152602490fd5b5060203660031901126101ae57610564610b1a565b91600a54341061059557836102ca84600854906105846009548310610fb3565b61058d82610ff4565b600855611019565b906020606492519162461bcd60e51b83528201526014602482015273125b9cdd59999a58da595b9d081c185e5b595b9d60621b6044820152fd5b505034610200578160031936011261020057602090600a549051908152f35b50913461025b57602036600319011261025b575061060e60209235610e2c565b90516001600160a01b039091168152f35b50823461025b576020806003193601126102005767ffffffffffffffff9083358281116107985736602382011215610798576106649036906024818801359101610bf0565b9361066d610c27565b84519283116107855750610682600b54610c53565b601f8111610735575b5080601f83116001146106c6575082938293926106bb575b50508160011b916000199060031b1c191617600b5580f35b0151905083806106a3565b600b8452601f19831694600080516020611618833981519152929185905b87821061071d575050836001959610610704575b505050811b01600b5580f35b015160001960f88460031b161c191690558380806106f8565b806001859682949686015181550195019301906106e4565b600b8452600080516020611618833981519152601f840160051c81019183851061077b575b601f0160051c01905b818110610770575061068b565b848155600101610763565b909150819061075a565b634e487b7160e01b845260419052602483fd5b8380fd5b505034610200576102ca906107b036610b4b565b919251926107bd84610b80565b8584526102c4838383610c8d565b5090346101ae57826003193601126101ae576107e5610c27565b8280808060018060a01b036007541647905af1610800610e67565b501561080a578280f35b906020606492519162461bcd60e51b8352820152600f60248201526e151c985b9cd9995c8819985a5b1959608a1b6044820152fd5b833461025b576102ca61085136610b4b565b91610c8d565b833461025b57602036600319011261025b576102ca610874610b1a565b61087c610c27565b600854906105846009548310610fb3565b5090346101ae57806003193601126101ae576108a7610b1a565b916024356108b481610e2c565b33151580610956575b8061092d575b610917576001600160a01b039485169482918691167f8c5be1e5ebec7d5bd14f71427d1e84f3dd0314c0f7b2291e5b200ac8c7c3b9258880a48452602052822080546001600160a01b031916909117905580f35b835163a9fbf51f60e01b81523381850152602490fd5b506001600160a01b03811686526005602090815284872033885290528386205460ff16156108c3565b506001600160a01b0381163314156108bd565b50346101ae5760203660031901126101ae5791826020933561098a81610e2c565b50825283528190205490516001600160a01b039091168152f35b5050346102005781600319360112610200578051908280546109c581610c53565b8085529160019180831690811561044c57506001146109f0575050506103de82610257940383610bb2565b80809650527f290decd9548b62a8d60345a988386fc84ba6bc95484008f6362f93160ef3e5635b828610610a34575050506103de82602061025795820101946103cc565b80546020878701810191909152909501948101610a17565b925050346101ae5760203660031901126101ae573563ffffffff60e01b81168091036101ae5760209250632483248360e11b8114908115610a8f575b5015158152f35b6380ac58cd60e01b811491508115610ac1575b8115610ab0575b5038610a88565b6301ffc9a760e01b14905038610aa9565b635b5e139f60e01b81149150610aa2565b60005b838110610ae55750506000910152565b8181015183820152602001610ad5565b90602091610b0e81518092818552858086019101610ad2565b601f01601f1916010190565b600435906001600160a01b0382168203610b3057565b600080fd5b602435906001600160a01b0382168203610b3057565b6060906003190112610b30576001600160a01b03906004358281168103610b3057916024359081168103610b30579060443590565b6020810190811067ffffffffffffffff821117610b9c57604052565b634e487b7160e01b600052604160045260246000fd5b90601f8019910116810190811067ffffffffffffffff821117610b9c57604052565b67ffffffffffffffff8111610b9c57601f01601f191660200190565b929192610bfc82610bd4565b91610c0a6040519384610bb2565b829481845281830111610b30578281602093846000960137010152565b6007546001600160a01b03163303610c3b57565b60405163118cdaa760e01b8152336004820152602490fd5b90600182811c92168015610c83575b6020831014610c6d57565b634e487b7160e01b600052602260045260246000fd5b91607f1691610c62565b6001600160a01b039182169290918315610e1357600092828452826020956002875260409684888820541696879133151580610d7d575b509060027fddf252ad1be2c89b69c2b068fc378daa952ba7f163c4a11628f55a4df523b3ef9284610d4a575b858352600381528b8320805460010190558683525289812080546001600160a01b0319168517905580a41692838303610d295750505050565b6064945051926364283d7b60e01b8452600484015260248301526044820152fd5b600087815260046020526040902080546001600160a01b0319169055848352600381528b83208054600019019055610cf0565b91939450915080610dd2575b15610d9957859291879138610cc4565b878688610db6576024915190637e27328960e01b82526004820152fd5b604491519063177e802f60e01b82523360048301526024820152fd5b503387148015610df7575b80610d895750858252600481523385898420541614610d89565b5086825260058152878220338352815260ff8883205416610ddd565b604051633250574960e11b815260006004820152602490fd5b6000818152600260205260409020546001600160a01b0316908115610e4f575090565b60249060405190637e27328960e01b82526004820152fd5b3d15610e92573d90610e7882610bd4565b91610e866040519384610bb2565b82523d6000602084013e565b606090565b9293823b610ea7575b5050505050565b610eeb9060018060a01b038094169560405194859481630a85bd0160e11b988988521660048701521660248501526044840152608060648401526084830190610af5565b03906020816000938185885af190829082610f6b575b5050610f395782610f10610e67565b8051919082610f3257604051633250574960e11b815260048101839052602490fd5b6020915001fd5b6001600160e01b03191603610f5357503880808080610ea0565b60249060405190633250574960e11b82526004820152fd5b909192506020813d8211610fab575b81610f8760209383610bb2565b810103126102005751906001600160e01b03198216820361025b5750903880610f01565b3d9150610f7a565b15610fba57565b60405162461bcd60e51b815260206004820152601260248201527113585e081cdd5c1c1b1e481c995858da195960721b6044820152606490fd5b60001981146110035760010190565b634e487b7160e01b600052601160045260246000fd5b604080519261102784610b80565b60008085526001600160a01b039484861694851561120657838352602096600288528584205416848782151592836111d3575b81875260038b528887208054600101905582875260028b5288872080546001600160a01b031916831790557fddf252ad1be2c89b69c2b068fc378daa952ba7f163c4a11628f55a4df523b3ef8780a46111bb573b6110bb575b505050505050565b856110f89185969798955180938192630a85bd0160e11b978884523360048501528760248501526044840152608060648401526084830190610af5565b0381858a5af190829082611177575b505061113f57505050611118610e67565b8051939084611139578251633250574960e11b815260048101859052602490fd5b84925001fd5b9194506001600160e01b0319909116036111605750503880808080806110b3565b602492505190633250574960e11b82526004820152fd5b909192508781813d83116111b4575b6111908183610bb2565b810103126102005751906001600160e01b03198216820361025b5750903880611107565b503d611186565b84516339e3563760e11b815260048101849052602490fd5b600083815260046020526040902080546001600160a01b031916905580875260038b52888720805460001901905561105a565b8451633250574960e11b815260048101849052602490fd5b602061125f91939293604051948161123f8793518092868087019101610ad2565b820161125382518093868085019101610ad2565b01038085520183610bb2565b565b61126a81610e2c565b50600081815260206006815260409182812083519482918681549361128e85610c53565b928383526001958887821691826000146115f75750506001146115b9575b506112b992500387610bb2565b8451600b549684916112ca89610c53565b80825281868b1694858a8160001461159c5750600114611553575b6112f192500382610bb2565b80511561154757815161153557505061130982610e2c565b508551809785908761131a82610c53565b808552949182156115185750506001146114cf575b61133b92500387610bb2565b8551156114ba578092819481927a184f03e93ff9f4daa797ed6e38ed64bf6a1f01000000000000000090818110156114ad575b50506d04ee2d6d415b85acef8100000000808710156114a0575b50662386f26fc1000080871015611491575b506305f5e10080871015611482575b5061271080871015611473575b506064861015611461575b906021929184600a80981015611457575b9594939291908483016113f06113e782610bd4565b9a519a8b610bb2565b808a526113ff601f1991610bd4565b019036908a013750860101905b611421575b5050505061141e9161121e565b90565b600019019083906f181899199a1a9b1b9c1cb0b131b232b360811b8282061a8353049182156114525791908261140c565b611411565b90920191846113d2565b606490950494600292909201916113c1565b600491939604950191386113b6565b600891939604950191386113a9565b6010919396049501913861139a565b8193960495019138611388565b049550869250388061136e565b505092505051906114ca82610b80565b815290565b5050600b8452868585856000805160206116188339815191525b8583106114ff57505061133b935082010161132f565b80919294505483858d0101520191018690858a936114e9565b60ff19168482015261133b94151560051b840101915061132f9050565b955095505050505061141e925061121e565b50965050505050505090565b5050600b8752818888886000805160206116188339815191525b8583106115835750506112f193508201016112e5565b809192945054838588010152019101899088859361156d565b9150506112f19260ff198d1682840152151560051b8201016112e5565b915050845286858086208587915b8583106115de5750506112b99350820101386112ac565b80919294505483858d0101520191018690858a936115c7565b60ff1916858201526112b995151560051b85010192503891506112ac905056fe0175b7a638427703f0dbe7bb9bbf987a2551717b34e79f33b5b1008d1fa01db9a2646970667358221220100307739191c0d14c0f5598ef2a619531ae4892f4b23902852b853c00c4766f64736f6c63430008140033",
  "linkReferences": {},
  "deployedLinkReferences": {}
}