{
  "_format": "hh-sol-artifact-1",
  "contractName": "DeployableNFT",
  "sourceName": "contracts/DeployableNFT.sol",
  "abi": [
    {
      "inputs": [
        {
          "internalType": "string",
          "name": "name_",
          "type": "string"
        },
        {
          "internalType": "string",
          "name": "symbol_",
          "type": "string"
        },
        {
          "internalType": "uint256",
          "name": "maxSupply_",
          "type": "uint256"
        },
        {
          "internalType": "uint256",
          "name": "mintPrice_",
          "type": "uint256"
        },
        {
          "internalType": "string",
          "name": "baseURI_",
          "type": "string"
        }
      ],
      "stateMutability": "nonpayable",
      "type": "constructor"
    },
    {
      "inputs": [
        {
          "internalType": "address",
          "name": "sender",
          "type": "address"
        },
        {
          "internalType": "uint256",
          "name": "tokenId",
          "type": "uint256"
        },
        {
          "internalType": "address",
          "name": "owner",
          "type": "address"
        }
      ],
      "name": "ERC721IncorrectOwner",
      "type": "error"
    },
    {
      "inputs": [
        {
          "internalType": "address",
          "name": "operator",
          "type": "address"
        },
        {
          "internalType": "uint256",
          "name": "tokenId",
          "type": "uint256"
        }
      ],
      "name": "ERC721InsufficientApproval",
      "type": "error"
    },
    {
      "inputs": [
        {
          "internalType": "address",
          "name": "approver",
          "type": "address"
        }
      ],
      "name": "ERC721InvalidApprover",
      "type": "error"
    },
    {
      "inputs": [
        {
          "internalType": "address",
          "name": "operator",
          "type": "address"
        }
      ],
      "name": "ERC721InvalidOperator",
      "type": "error"
    },
    {
      "inputs": [
        {
          "internalType": "address",
          "name": "owner",
          "type": "address"
        }
      ],
      "name": "ERC721InvalidOwner",
      "type": "error"
    },
    {
      "inputs": [
        {
          "internalType": "address",
          "name": "receiver",
          "type": "address"
        }
      ],
      "name": "ERC721InvalidReceiver",
      "type": "error"
    },
    {
      "inputs": [
        {
          "internalType": "address",
          "name": "sender",
          "type": "address"
        }
      ],
      "name": "ERC721InvalidSender",
      "type": "error"
    },
    {
      "inputs": [
        {
          "internalType": "uint256",
          "name": "tokenId",
          "type": "uint256"
        }
      ],
      "name": "ERC721NonexistentToken",
      "type": "error"
    },
    {
      "inputs": [
        {
          "internalType": "address",
          "name": "owner",
          "type": "address"
        }
      ],
      "name": "OwnableInvalidOwner",
      "type": "error"
    },
    {
      "inputs": [
        {
          "internalType": "address",
          "name": "account",
          "type": "address"
        }
      ],
      "name": "OwnableUnauthorizedAccount",
      "type": "error"
    },
    {
      "anonymous": false,
      "inputs": [
        {
          "indexed": true,
          "internalType": "address",
          "name": "owner",
          "type": "address"
        },
        {
          "indexed": true,
          "internalType": "address",
          "name": "approved",
          "type": "address"
        },
        {
          "indexed": true,
          "internalType": "uint256",
          "name": "tokenId",
          "type": "uint256"
        }
      ],
      "name": "Approval",
      "type": "event"
    },
    {
      "anonymous": false,
      "inputs": [
        {
          "indexed": true,
          "internalType": "address",
          "name": "owner",
          "type": "address"
        },
        {
          "indexed": true,
          "internalType": "address",
          "name": "operator",
          "type": "address"
        },
        {
          "indexed": false,
          "internalType": "bool",
          "name": "approved",
          "type": "bool"
        }
      ],
      "name": "ApprovalForAll",
      "type": "event"
    },
    {
      "anonymous": false,
      "inputs": [
        {
          "indexed": false,
          "internalType": "uint256",
          "name": "_fromTokenId",
          "type": "uint256"
        },
        {
          "indexed": false,
          "internalType": "uint256",
          "name": "_toTokenId",
          "type": "uint256"
        }
      ],
      "name": "BatchMetadataUpdate",
      "type": "event"
    },
    {
      "anonymous": false,
      "inputs": [
        {
          "indexed": false,
          "internalType": "uint256",
          "name": "_tokenId",
          "type": "uint256"
        }
      ],
      "name": "MetadataUpdate",
      "type": "event"
    },
    {
      "anonymous": false,
      "inputs": [
        {
          "indexed": true,
          "internalType": "address",
          "name": "previousOwner",
          "type": "address"
        },
        {
          "indexed": true,
          "internalType": "address",
          "name": "newOwner",
          "type": "address"
        }
      ],
      "name": "OwnershipTransferred",
      "type": "event"
    },
    {
      "anonymous": false,
      "inputs": [
        {
          "indexed": true,
          "internalType": "address",
          "name": "from",
          "type": "address"
        },
        {
          "indexed": true,
          "internalType": "address",
          "name": "to",
          "type": "address"
        },
        {
          "indexed": true,
          "internalType": "uint256",
          "name": "tokenId",
          "type": "uint256"
        }
      ],
      "name": "Transfer",
      "type": "event"
    },
    {
      "inputs": [
        {
          "internalType": "address",
          "name": "to",
          "type": "address"
        },
        {
          "internalType": "uint256",
          "name": "tokenId",
          "type": "uint256"
        }
      ],
      "name": "approve",
      "outputs": [],
      "stateMutability": "nonpayable",
      "type": "function"
    },
    {
      "inputs": [
        {
          "internalType": "address",
          "name": "owner",
          "type": "address"
        }
      ],
      "name": "balanceOf",
      "outputs": [
        {
          "internalType": "uint256",
          "name": "",
          "type": "uint256"
        }
      ],
      "stateMutability": "view",
      "type": "function"
    },
    {
      "inputs": [
        {
          "internalType": "uint256",
          "name": "tokenId",
          "type": "uint256"
        }
      ],
      "name": "getApproved",
      "outputs": [
        {
          "internalType": "address",
          "name": "",
          "type": "address"
        }
      ],
      "stateMutability": "view",
      "type": "function"
    },
    {
      "inputs": [
        {
          "internalType": "address",
          "name": "owner",
          "type": "address"
        },
        {
          "internalType": "address",
          "name": "operator",
          "type": "address"
        }
      ],
      "name": "isApprovedForAll",
      "outputs": [
        {
          "internalType": "bool",
          "name": "",
          "type": "bool"
        }
      ],
      "stateMutability": "view",
      "type": "function"
    },
    {
      "inputs": [],
      "name": "maxSupply",
      "outputs": [
        {
          "internalType": "uint256",
          "name": "",
          "type": "uint256"
        }
      ],
      "stateMutability": "view",
      "type": "function"
    },
    {
      "inputs": [
        {
          "internalType": "address",
          "name": "to",
          "type": "address"
        }
      ],
      "name": "mint",
      "outputs": [],
      "stateMutability": "payable",
      "type": "function"
    },
    {
      "inputs": [],
      "name": "mintPrice",
      "outputs": [
        {
          "internalType": "uint256",
          "name": "",
          "type": "uint256"
        }
      ],
      "stateMutability": "view",
      "type": "function"
    },
    {
      "inputs": [
        {
          "internalType": "address",
          "name": "to",
          "type": "address"
        },
        {
          "internalType": "string",
          "name": "uri",
          "type": "string"
        }
      ],
      "name": "mintWithURI",
      "outputs": [],
      "stateMutability": "payable",
      "type": "function"
    },
    {
      "inputs": [],
      "name": "name",
      "outputs": [
        {
          "internalType": "string",
          "name": "",
          "type": "string"
        }
      ],
      "stateMutability": "view",
      "type": "function"
    },
    {
      "inputs": [],
      "name": "owner",
      "outputs": [
        {
          "internalType": "address",
          "name": "",
          "type": "address"
        }
      ],
      "stateMutability": "view",
      "type": "function"
    },
    {
      "inputs": [
        {
          "internalType": "address",
          "name": "to",
          "type": "address"
        }
      ],
      "name": "ownerMint",
      "outputs": [],
      "stateMutability": "nonpayable",
      "type": "function"
    },
    {
      "inputs": [
        {
          "internalType": "address",
          "name": "to",
          "type": "address"
        },
        {
          "internalType": "string",
          "name": "uri",
          "type": "string"
        }
      ],
      "name": "ownerMintWithURI",
      "outputs": [],
      "stateMutability": "nonpayable",
      "type": "function"
    },
    {
      "inputs": [
        {
          "internalType": "uint256",
          "name": "tokenId",
          "type": "uint256"
        }
      ],
      "name": "ownerOf",
      "outputs": [
        {
          "internalType": "address",
          "name": "",
          "type": "address"
        }
      ],
      "stateMutability": "view",
      "type": "function"
    },
    {
      "inputs": [],
      "name": "renounceOwnership",
      "outputs": [],
      "stateMutability": "nonpayable",
      "type": "function"
    },
    {
      "inputs": [
        {
          "internalType": "address",
          "name": "from",
          "type": "address"
        },
        {
          "internalType": "address",
          "name": "to",
          "type": "address"
        },
        {
          "internalType": "uint256",
          "name": "tokenId",
          "type": "uint256"
        }
      ],
      "name": "safeTransferFrom",
      "outputs": [],
      "stateMutability": "nonpayable",
      "type": "function"
    },
    {
      "inputs": [
        {
          "internalType": "address",
          "name": "from",
          "type": "address"
        },
        {
          "internalType": "address",
          "name": "to",
          "type": "address"
        },
        {
          "internalType": "uint256",
          "name": "tokenId",
          "type": "uint256"
        },
        {
          "internalType": "bytes",
          "name": "data",
          "type": "bytes"
        }
      ],
      "name": "safeTransferFrom",
      "outputs": [],
      "stateMutability": "nonpayable",
      "type": "function"
    },
    {
      "inputs": [
        {
          "internalType": "address",
          "name": "operator",
          "type": "address"
        },
        {
          "internalType": "bool",
          "name": "approved",
          "type": "bool"
        }
      ],
      "name": "setApprovalForAll",
      "outputs": [],
      "stateMutability": "nonpayable",
      "type": "function"
    },
    {
      "inputs": [
        {
          "internalType": "string",
          "name": "baseURI_",
          "type": "string"
        }
      ],
      "name": "setBaseURI",
      "outputs": [],
      "stateMutability": "nonpayable",
      "type": "function"
    },
    {
      "inputs": [
        {
          "internalType": "bytes4",
          "name": "interfaceId",
          "type": "bytes4"
        }
      ],
      "name": "supportsInterface",
      "outputs": [
        {
          "internalType": "bool",
          "name": "",
          "type": "bool"
        }
      ],
      "stateMutability": "view",
      "type": "function"
    },
    {
      "inputs": [],
      "name": "symbol",
      "outputs": [
        {
          "internalType": "string",
          "name": "",
          "type": "string"
        }
      ],
      "stateMutability": "view",
      "type": "function"
    },
    {
      "inputs": [
        {
          "internalType": "uint256",
          "name": "tokenId",
          "type": "uint256"
        }
      ],
      "name": "tokenURI",
      "outputs": [
        {
          "internalType": "string",
          "name": "",
          "type": "string"
        }
      ],
      "stateMutability": "view",
      "type": "function"
    },
    {
      "inputs": [],
      "name": "totalMinted",
      "outputs": [
        {
          "internalType": "uint256",
          "name": "",
          "type": "uint256"
        }
      ],
      "stateMutability": "view",
      "type": "function"
    },
    {
      "inputs": [
        {
          "internalType": "address",
          "name": "from",
          "type": "address"
        },
        {
          "internalType": "address",
          "name": "to",
          "type": "address"
        },
        {
          "internalType": "uint256",
          "name": "tokenId",
          "type": "uint256"
        }
      ],
      "name": "transferFrom",
      "outputs": [],
      "stateMutability": "nonpayable",
      "type": "function"
    },
    {
      "inputs": [
        {
          "internalType": "address",
          "name": "newOwner",
          "type": "address"
        }
      ],
      "name": "transferOwnership",
      "outputs": [],
      "stateMutability": "nonpayable",
      "type": "function"
    },
    {
      "inputs": [],
      "name": "withdraw",
      "outputs": [],
      "stateMutability": "nonpayable",
      "type": "function"
    }
  ],
  "bytecode": "0x608060405234620004f85762001e24803803806200001d81620004fd565b92833981019060a081830312620004f85780516001600160401b039190828111620004f857836200005091830162000523565b9060209384820151848111620004f857816200006e91840162000523565b6040830151926060810151926080820151878111620004f85762000093920162000523565b91845193868511620004e2576000928354956001978888811c98168015620004d7575b8b891014620003db5781908b601f998a811162000481575b50508b908983116001146200041a5787926200040e575b5050600019600383901b1c191690881b1784555b805190888211620003fa5787548881811c91168015620003ef575b8b821014620003db5790818884931162000388575b508a908883116001146200032357869262000317575b5050600019600383901b1c191690871b1786555b3315620002fe5760078054336001600160a01b0319821681179092556001600160a01b03167f8be0079c531659141344cd1fd0a4f28419497f9722a3daafe3b4186f6b6457e08580a3600955600a558151948511620002ea57600b548481811c91168015620002df575b87821014620002cb5783811162000282575b5085928511600114620002195793945084929190836200020d575b50501b916000199060031b1c191617600b555b60405161188e9081620005968239f35b015192503880620001ea565b600b815285812093958591601f198316915b888383106200026757505050106200024d575b505050811b01600b55620001fd565b015160001960f88460031b161c191690553880806200023e565b8587015188559096019594850194879350908101906200022b565b600b82528682208480880160051c820192898910620002c1575b0160051c019085905b828110620002b5575050620001cf565b838155018590620002a5565b925081926200029c565b634e487b7160e01b82526022600452602482fd5b90607f1690620001bd565b634e487b7160e01b81526041600452602490fd5b604051631e4fbdf760e01b815260048101849052602490fd5b0151905038806200013f565b8987528b87208a94509190601f198416888e5b82821062000370575050841162000356575b505050811b01865562000153565b015160001960f88460031b161c1916905538808062000348565b8385015186558d979095019493840193018e62000336565b9091508886528a86208880850160051c8201928d8610620003d1575b918b91869594930160051c01915b828110620003c257505062000129565b8881558594508b9101620003b2565b92508192620003a4565b634e487b7160e01b86526022600452602486fd5b90607f169062000114565b634e487b7160e01b85526041600452602485fd5b015190503880620000e5565b8780528c88208b94509190601f198416898f5b8282106200046757505084116200044d575b505050811b018455620000f9565b015160001960f88460031b161c191690553880806200043f565b8484015186558e979095019493840193908101906200042d565b90919250878052898289209181860160051c8301938610620004cd575b918c91869594930160051c01915b828110620004be57508d9150620000ce565b8981558594508c9101620004ac565b925081926200049e565b97607f1697620000b6565b634e487b7160e01b600052604160045260246000fd5b600080fd5b6040519190601f01601f191682016001600160401b03811183821017620004e257604052565b919080601f84011215620004f85782516001600160401b038111620004e25760209062000559601f8201601f19168301620004fd565b92818452828287010111620004f85760005b8181106200058157508260009394955001015290565b85810183015184820184015282016200056b56fe6080604081815260048036101561001557600080fd5b600092833560e01c90816301ffc9a714610a595750806306fdde03146109b1578063081812fc14610976578063095ea7b31461089a5780630e9806021461087e5780631e3bcc8e1461085957806323b872dd146108415780633ccfd60b146107cd57806342842e0e1461079e57806355f804b31461063257806359561f70146105fd5780636352211e146105cc5780636817c76c146105ad5780636a6278421461056557806370a0823114610510578063715018a6146104b35780638da5cb5b1461048a57806395d89b41146103a7578063a22cb46514610306578063a2309ff8146102e7578063b88d4fde14610274578063c87b56dd14610239578063d5abeb011461021a578063e985e9c5146101c85763f2fde38b1461013657600080fd5b346101c45760203660031901126101c45761014f610b27565b90610158610c92565b6001600160a01b039182169283156101ae575050600754826bffffffffffffffffffffffff60a01b821617600755167f8be0079c531659141344cd1fd0a4f28419497f9722a3daafe3b4186f6b6457e08380a380f35b51631e4fbdf760e01b8152908101849052602490fd5b8280fd5b50503461021657806003193601126102165760ff816020936101e8610b27565b6101f0610b42565b6001600160a01b0391821683526005875283832091168252855220549151911615158152f35b5080fd5b5050346102165781600319360112610216576020906009549051908152f35b509134610271576020366003190112610271575061025a61026d9235611485565b9051918291602083526020830190610b02565b0390f35b80fd5b8382346102165760803660031901126102165761028f610b27565b610297610b42565b6044359060643567ffffffffffffffff81116102e357366023820112156102e3576102e0948160246102ce93369301359101610bc8565b926102da838383610cf8565b33610f02565b80f35b8580fd5b5050346102165781600319360112610216576020906008549051908152f35b5090346101c457806003193601126101c457610320610b27565b90602435918215158093036103a3576001600160a01b031692831561038e5750338452600560205280842083855260205280842060ff1981541660ff8416179055519081527f17307eab39ab6107e8899845ad3d59bd9653f200f220920489ca2b5937696c3160203392a380f35b836024925191630b61174360e31b8352820152fd5b8480fd5b5050346102165781600319360112610216578051908260018054916103cb83610cbe565b808652928281169081156104625750600114610406575b5050506103f48261026d940383610b8a565b51918291602083526020830190610b02565b94508085527fb10e2d527612073b26eecdfd717e6a320cf44b4afac2b0732d9fcbe2b7fa0cf65b82861061044a575050506103f482602061026d95820101946103e2565b8054602087870181019190915290950194810161042d565b61026d9750869350602092506103f494915060ff191682840152151560051b820101946103e2565b50503461021657816003193601126102165760075490516001600160a01b039091168152602090f35b83346102715780600319360112610271576104cc610c92565b600780546001600160a01b0319811690915581906001600160a01b03167f8be0079c531659141344cd1fd0a4f28419497f9722a3daafe3b4186f6b6457e08280a380f35b509134610271576020366003190112610271576001600160a01b03610533610b27565b169283156105505750806020938392526003845220549051908152f35b91516322718ad960e21b815291820152602490fd5b836020366003190112610271576102e061057d610b27565b61058b600a5434101561101e565b6008549061059c6009548310611061565b6105a5826110a2565b6008556110c7565b505034610216578160031936011261021657602090600a549051908152f35b50913461027157602036600319011261027157506105ec60209235610e97565b90516001600160a01b039091168152f35b8334610271576102e061060f36610c1d565b90610618610c92565b61062d600854809261059c6009548310611061565b6112cc565b508234610271576020806003193601126102165767ffffffffffffffff90833582811161079a576106669036908601610bff565b9361066f610c92565b84519283116107875750610684600b54610cbe565b601f8111610737575b5080601f83116001146106c8575082938293926106bd575b50508160011b916000199060031b1c191617600b5580f35b0151905083806106a5565b600b8452601f19831694600080516020611839833981519152929185905b87821061071f575050836001959610610706575b505050811b01600b5580f35b015160001960f88460031b161c191690558380806106fa565b806001859682949686015181550195019301906106e6565b600b8452600080516020611839833981519152601f840160051c81019183851061077d575b601f0160051c01905b818110610772575061068d565b848155600101610765565b909150819061075c565b634e487b7160e01b845260419052602483fd5b8380fd5b505034610216576102e0906107b236610c5d565b919251926107bf84610b58565b8584526102da838383610cf8565b5090346101c457826003193601126101c4576107e7610c92565b8280808060018060a01b036007541647905af1610802610ed2565b501561080c578280f35b906020606492519162461bcd60e51b8352820152600f60248201526e151c985b9cd9995c8819985a5b1959608a1b6044820152fd5b8334610271576102e061085336610c5d565b91610cf8565b8334610271576020366003190112610271576102e0610876610b27565b61058b610c92565b836102e061088b36610c1d565b90610618600a5434101561101e565b5090346101c457806003193601126101c4576108b4610b27565b916024356108c181610e97565b33151580610963575b8061093a575b610924576001600160a01b039485169482918691167f8c5be1e5ebec7d5bd14f71427d1e84f3dd0314c0f7b2291e5b200ac8c7c3b9258880a48452602052822080546001600160a01b031916909117905580f35b835163a9fbf51f60e01b81523381850152602490fd5b506001600160a01b03811686526005602090815284872033885290528386205460ff16156108d0565b506001600160a01b0381163314156108ca565b50346101c45760203660031901126101c45791826020933561099781610e97565b50825283528190205490516001600160a01b039091168152f35b5050346102165781600319360112610216578051908280546109d281610cbe565b8085529160019180831690811561046257506001146109fd575050506103f48261026d940383610b8a565b80809650527f290decd9548b62a8d60345a988386fc84ba6bc95484008f6362f93160ef3e5635b828610610a41575050506103f482602061026d95820101946103e2565b80546020878701810191909152909501948101610a24565b925050346101c45760203660031901126101c4573563ffffffff60e01b81168091036101c45760209250632483248360e11b8114908115610a9c575b5015158152f35b6380ac58cd60e01b811491508115610ace575b8115610abd575b5038610a95565b6301ffc9a760e01b14905038610ab6565b635b5e139f60e01b81149150610aaf565b60005b838110610af25750506000910152565b8181015183820152602001610ae2565b90602091610b1b81518092818552858086019101610adf565b601f01601f1916010190565b600435906001600160a01b0382168203610b3d57565b600080fd5b602435906001600160a01b0382168203610b3d57565b6020810190811067ffffffffffffffff821117610b7457604052565b634e487b7160e01b600052604160045260246000fd5b90601f8019910116810190811067ffffffffffffffff821117610b7457604052565b67ffffffffffffffff8111610b7457601f01601f191660200190565b929192610bd482610bac565b91610be26040519384610b8a565b829481845281830111610b3d578281602093846000960137010152565b9080601f83011215610b3d57816020610c1a93359101610bc8565b90565b906040600319830112610b3d576004356001600160a01b0381168103610b3d57916024359067ffffffffffffffff8211610b3d57610c1a91600401610bff565b6060906003190112610b3d576001600160a01b03906004358281168103610b3d57916024359081168103610b3d579060443590565b6007546001600160a01b03163303610ca657565b60405163118cdaa760e01b8152336004820152602490fd5b90600182811c92168015610cee575b6020831014610cd857565b634e487b7160e01b600052602260045260246000fd5b91607f1691610ccd565b6001600160a01b039182169290918315610e7e57600092828452826020956002875260409684888820541696879133151580610de8575b509060027fddf252ad1be2c89b69c2b068fc378daa952ba7f163c4a11628f55a4df523b3ef9284610db5575b858352600381528b8320805460010190558683525289812080546001600160a01b0319168517905580a41692838303610d945750505050565b6064945051926364283d7b60e01b8452600484015260248301526044820152fd5b600087815260046020526040902080546001600160a01b0319169055848352600381528b83208054600019019055610d5b565b91939450915080610e3d575b15610e0457859291879138610d2f565b878688610e21576024915190637e27328960e01b82526004820152fd5b604491519063177e802f60e01b82523360048301526024820152fd5b503387148015610e62575b80610df45750858252600481523385898420541614610df4565b5086825260058152878220338352815260ff8883205416610e48565b604051633250574960e11b815260006004820152602490fd5b6000818152600260205260409020546001600160a01b0316908115610eba575090565b60249060405190637e27328960e01b82526004820152fd5b3d15610efd573d90610ee382610bac565b91610ef16040519384610b8a565b82523d6000602084013e565b606090565b9293823b610f12575b5050505050565b610f569060018060a01b038094169560405194859481630a85bd0160e11b988988521660048701521660248501526044840152608060648401526084830190610b02565b03906020816000938185885af190829082610fd6575b5050610fa45782610f7b610ed2565b8051919082610f9d57604051633250574960e11b815260048101839052602490fd5b6020915001fd5b6001600160e01b03191603610fbe57503880808080610f0b565b60249060405190633250574960e11b82526004820152fd5b909192506020813d8211611016575b81610ff260209383610b8a565b810103126102165751906001600160e01b0319821682036102715750903880610f6c565b3d9150610fe5565b1561102557565b60405162461bcd60e51b8152602060048201526014602482015273125b9cdd59999a58da595b9d081c185e5b595b9d60621b6044820152606490fd5b1561106857565b60405162461bcd60e51b815260206004820152601260248201527113585e081cdd5c1c1b1e481c995858da195960721b6044820152606490fd5b60001981146110b15760010190565b634e487b7160e01b600052601160045260246000fd5b60408051926110d584610b58565b60008085526001600160a01b03948486169485156112b45783835260209660028852858420541684878215159283611281575b81875260038b528887208054600101905582875260028b5288872080546001600160a01b031916831790557fddf252ad1be2c89b69c2b068fc378daa952ba7f163c4a11628f55a4df523b3ef8780a4611269573b611169575b505050505050565b856111a69185969798955180938192630a85bd0160e11b978884523360048501528760248501526044840152608060648401526084830190610b02565b0381858a5af190829082611225575b50506111ed575050506111c6610ed2565b80519390846111e7578251633250574960e11b815260048101859052602490fd5b84925001fd5b9194506001600160e01b03199091160361120e575050388080808080611161565b602492505190633250574960e11b82526004820152fd5b909192508781813d8311611262575b61123e8183610b8a565b810103126102165751906001600160e01b03198216820361027157509038806111b5565b503d611234565b84516339e3563760e11b815260048101849052602490fd5b600083815260046020526040902080546001600160a01b031916905580875260038b528887208054600019019055611108565b8451633250574960e11b815260048101849052602490fd5b91909160009080825260209160068352604081209085519067ffffffffffffffff821161142e576112fd8354610cbe565b601f81116113eb575b508490601f831160011461136757907ff8e1a15aba9398e019f0b49df1a4fde98ee17ae345cb5f6b5e2c27f5033e8ce796978361135c575b50508160011b916000199060031b1c19161790555b604051908152a1565b01519050388061133e565b9196601f198816848452868420935b8181106113d457509160019391897ff8e1a15aba9398e019f0b49df1a4fde98ee17ae345cb5f6b5e2c27f5033e8ce7999a94106113bb575b505050811b019055611353565b015160001960f88460031b161c191690553880806113ae565b929387600181928786015181550195019301611376565b838252858220601f840160051c810191878510611424575b601f0160051c01905b8181106114195750611306565b82815560010161140c565b9091508190611403565b634e487b7160e01b81526041600452602490fd5b60206114839193929360405194816114638793518092868087019101610adf565b820161147782518093868085019101610adf565b01038085520183610b8a565b565b61148e81610e97565b5060008181526020600681526040918281208351948291868154936114b285610cbe565b928383526001958887821691826000146118185750506001146117da575b506114dd92500387610b8a565b8451600b549684916114ee89610cbe565b80825281868b1694858a816000146117bd5750600114611774575b61151592500382610b8a565b80511561176857815161175657505061152d82610e97565b508551809785908761153e82610cbe565b808552949182156117395750506001146116f0575b61155f92500387610b8a565b8551156116db578092819481927a184f03e93ff9f4daa797ed6e38ed64bf6a1f01000000000000000090818110156116ce575b50506d04ee2d6d415b85acef8100000000808710156116c1575b50662386f26fc10000808710156116b2575b506305f5e100808710156116a3575b5061271080871015611694575b506064861015611682575b906021929184600a80981015611678575b95949392919084830161161461160b82610bac565b9a519a8b610b8a565b808a52611623601f1991610bac565b019036908a013750860101905b611642575b50505050610c1a91611442565b600019019083906f181899199a1a9b1b9c1cb0b131b232b360811b8282061a83530491821561167357919082611630565b611635565b90920191846115f6565b606490950494600292909201916115e5565b600491939604950191386115da565b600891939604950191386115cd565b601091939604950191386115be565b81939604950191386115ac565b0495508692503880611592565b505092505051906116eb82610b58565b815290565b5050600b8452868585856000805160206118398339815191525b85831061172057505061155f9350820101611553565b80919294505483858d0101520191018690858a9361170a565b60ff19168482015261155f94151560051b84010191506115539050565b9550955050505050610c1a9250611442565b50965050505050505090565b5050600b8752818888886000805160206118398339815191525b8583106117a45750506115159350820101611509565b809192945054838588010152019101899088859361178e565b9150506115159260ff198d1682840152151560051b820101611509565b915050845286858086208587915b8583106117ff5750506114dd9350820101386114d0565b80919294505483858d0101520191018690858a936117e8565b60ff1916858201526114dd95151560051b85010192503891506114d0905056fe0175b7a638427703f0dbe7bb9bbf987a2551717b34e79f33b5b1008d1fa01db9a264697066735822122046b7ec221f0abfda0c735aced122049fa7b485e2af94cfd2704cf1650530cd4164736f6c63430008140033",
  "linkReferences": {},
  "deployedLinkReferences": {}
}